{
  "_format": "hh-sol-artifact-1",
  "contractName": "UniswapV3MultiHopSwap",
  "sourceName": "contracts/UniswapV3MultiHopSwap.sol",
  "abi": [
    {
      "inputs": [
        {
          "internalType": "uint256",
          "name": "amountIn",
          "type": "uint256"
        },
        {
          "internalType": "uint256",
          "name": "amountOutMin",
          "type": "uint256"
        }
      ],
      "name": "swapExactInputMultiHop",
      "outputs": [],
      "stateMutability": "nonpayable",
      "type": "function"
    },
    {
      "inputs": [
        {
          "internalType": "uint256",
          "name": "amountOut",
          "type": "uint256"
        },
        {
          "internalType": "uint256",
          "name": "amountInMax",
          "type": "uint256"
        }
      ],
      "name": "swapExactOutputMultiHop",
      "outputs": [],
      "stateMutability": "nonpayable",
      "type": "function"
    }
  ],
  "bytecode": "0x608060405234801561001057600080fd5b50610c67806100206000396000f3fe608060405234801561001057600080fd5b50600436106100365760003560e01c8063aaf1ff721461003b578063d05d4cdd14610057575b600080fd5b610055600480360381019061005091906106ff565b610073565b005b610071600480360381019061006c91906106ff565b6102f2565b005b73c02aaa39b223fe8d0a0e5c4f27ead9083c756cc273ffffffffffffffffffffffffffffffffffffffff166323b872dd3330856040518463ffffffff1660e01b81526004016100c49392919061078f565b6020604051808303816000875af11580156100e3573d6000803e3d6000fd5b505050506040513d601f19601f8201168201806040525081019061010791906107fe565b5073c02aaa39b223fe8d0a0e5c4f27ead9083c756cc273ffffffffffffffffffffffffffffffffffffffff1663095ea7b373e592427a0aece92de3edee1f18e0157c05861564846040518363ffffffff1660e01b815260040161016b92919061082b565b6020604051808303816000875af115801561018a573d6000803e3d6000fd5b505050506040513d601f19601f820116820180604052508101906101ae91906107fe565b50600073c02aaa39b223fe8d0a0e5c4f27ead9083c756cc2610bb873a0b86991c6218b36c1d19d4a2e9eb0ce3606eb486064736b175474e89094c44da98b954eedeac495271d0f6040516020016102099594939291906108e1565b604051602081830303815290604052905060006040518060a001604052808381526020013373ffffffffffffffffffffffffffffffffffffffff16815260200142815260200185815260200184815250905073e592427a0aece92de3edee1f18e0157c0586156473ffffffffffffffffffffffffffffffffffffffff1663c04b8d59826040518263ffffffff1660e01b81526004016102a89190610a64565b6020604051808303816000875af11580156102c7573d6000803e3d6000fd5b505050506040513d601f19601f820116820180604052508101906102eb9190610a9b565b5050505050565b73c02aaa39b223fe8d0a0e5c4f27ead9083c756cc273ffffffffffffffffffffffffffffffffffffffff166323b872dd3330846040518463ffffffff1660e01b81526004016103439392919061078f565b6020604051808303816000875af1158015610362573d6000803e3d6000fd5b505050506040513d601f19601f8201168201806040525081019061038691906107fe565b5073c02aaa39b223fe8d0a0e5c4f27ead9083c756cc273ffffffffffffffffffffffffffffffffffffffff1663095ea7b373e592427a0aece92de3edee1f18e0157c05861564836040518363ffffffff1660e01b81526004016103ea92919061082b565b6020604051808303816000875af1158015610409573d6000803e3d6000fd5b505050506040513d601f19601f8201168201806040525081019061042d91906107fe565b506000736b175474e89094c44da98b954eedeac495271d0f606473a0b86991c6218b36c1d19d4a2e9eb0ce3606eb48610bb873c02aaa39b223fe8d0a0e5c4f27ead9083c756cc26040516020016104889594939291906108e1565b604051602081830303815290604052905060006040518060a001604052808381526020013373ffffffffffffffffffffffffffffffffffffffff168152602001428152602001858152602001848152509050600073e592427a0aece92de3edee1f18e0157c0586156473ffffffffffffffffffffffffffffffffffffffff1663f28c0498836040518263ffffffff1660e01b81526004016105299190610b3e565b6020604051808303816000875af1158015610548573d6000803e3d6000fd5b505050506040513d601f19601f8201168201806040525081019061056c9190610a9b565b9050838110156106bd5773c02aaa39b223fe8d0a0e5c4f27ead9083c756cc273ffffffffffffffffffffffffffffffffffffffff1663095ea7b373e592427a0aece92de3edee1f18e0157c0586156460006040518363ffffffff1660e01b81526004016105da929190610ba5565b6020604051808303816000875af11580156105f9573d6000803e3d6000fd5b505050506040513d601f19601f8201168201806040525081019061061d91906107fe565b5073c02aaa39b223fe8d0a0e5c4f27ead9083c756cc273ffffffffffffffffffffffffffffffffffffffff1663a9059cbb33838761065b9190610bfd565b6040518363ffffffff1660e01b815260040161067892919061082b565b6020604051808303816000875af1158015610697573d6000803e3d6000fd5b505050506040513d601f19601f820116820180604052508101906106bb91906107fe565b505b5050505050565b600080fd5b6000819050919050565b6106dc816106c9565b81146106e757600080fd5b50565b6000813590506106f9816106d3565b92915050565b60008060408385031215610716576107156106c4565b5b6000610724858286016106ea565b9250506020610735858286016106ea565b9150509250929050565b600073ffffffffffffffffffffffffffffffffffffffff82169050919050565b600061076a8261073f565b9050919050565b61077a8161075f565b82525050565b610789816106c9565b82525050565b60006060820190506107a46000830186610771565b6107b16020830185610771565b6107be6040830184610780565b949350505050565b60008115159050919050565b6107db816107c6565b81146107e657600080fd5b50565b6000815190506107f8816107d2565b92915050565b600060208284031215610814576108136106c4565b5b6000610822848285016107e9565b91505092915050565b60006040820190506108406000830185610771565b61084d6020830184610780565b9392505050565b60008160601b9050919050565b600061086c82610854565b9050919050565b600061087e82610861565b9050919050565b6108966108918261075f565b610873565b82525050565b600062ffffff82169050919050565b60008160e81b9050919050565b60006108c3826108ab565b9050919050565b6108db6108d68261089c565b6108b8565b82525050565b60006108ed8288610885565b6014820191506108fd82876108ca565b60038201915061090d8286610885565b60148201915061091d82856108ca565b60038201915061092d8284610885565b6014820191508190509695505050505050565b600081519050919050565b600082825260208201905092915050565b60005b8381101561097a57808201518184015260208101905061095f565b60008484015250505050565b6000601f19601f8301169050919050565b60006109a282610940565b6109ac818561094b565b93506109bc81856020860161095c565b6109c581610986565b840191505092915050565b6109d98161075f565b82525050565b6109e8816106c9565b82525050565b600060a0830160008301518482036000860152610a0b8282610997565b9150506020830151610a2060208601826109d0565b506040830151610a3360408601826109df565b506060830151610a4660608601826109df565b506080830151610a5960808601826109df565b508091505092915050565b60006020820190508181036000830152610a7e81846109ee565b905092915050565b600081519050610a95816106d3565b92915050565b600060208284031215610ab157610ab06106c4565b5b6000610abf84828501610a86565b91505092915050565b600060a0830160008301518482036000860152610ae58282610997565b9150506020830151610afa60208601826109d0565b506040830151610b0d60408601826109df565b506060830151610b2060608601826109df565b506080830151610b3360808601826109df565b508091505092915050565b60006020820190508181036000830152610b588184610ac8565b905092915050565b6000819050919050565b6000819050919050565b6000610b8f610b8a610b8584610b60565b610b6a565b6106c9565b9050919050565b610b9f81610b74565b82525050565b6000604082019050610bba6000830185610771565b610bc76020830184610b96565b9392505050565b7f4e487b7100000000000000000000000000000000000000000000000000000000600052601160045260246000fd5b6000610c08826106c9565b9150610c13836106c9565b9250828203905081811115610c2b57610c2a610bce565b5b9291505056fea2646970667358221220bb697ca0f2ec02d9649673bcc13de77813fd3fc14fd63f2e31f115edc4d62a0a64736f6c63430008110033",
  "linkReferences": {},
  "deployedLinkReferences": {}
}