{
  "_format": "hh-sol-artifact-1",
  "contractName": "UniswapV3SingleHopSwap",
  "sourceName": "contracts/UniswapV3SingleHopSwap.sol",
  "abi": [
    {
      "inputs": [
        {
          "internalType": "address",
          "name": "token1",
          "type": "address"
        },
        {
          "internalType": "address",
          "name": "token2",
          "type": "address"
        },
        {
          "internalType": "uint256",
          "name": "amountIn",
          "type": "uint256"
        }
      ],
      "name": "swapExactInputSingleHop",
      "outputs": [],
      "stateMutability": "nonpayable",
      "type": "function"
    },
    {
      "inputs": [
        {
          "internalType": "address",
          "name": "token1",
          "type": "address"
        },
        {
          "internalType": "address",
          "name": "token2",
          "type": "address"
        },
        {
          "internalType": "uint256",
          "name": "amountOut",
          "type": "uint256"
        },
        {
          "internalType": "uint256",
          "name": "amountInMax",
          "type": "uint256"
        }
      ],
      "name": "swapExactOutputSingleHop",
      "outputs": [],
      "stateMutability": "nonpayable",
      "type": "function"
    }
  ],
  "bytecode": "0x608060405234801561001057600080fd5b506107db806100206000396000f3fe608060405234801561001057600080fd5b50600436106100365760003560e01c80633fd012001461003b5780635a465ee714610050575b600080fd5b61004e61004936600461069c565b610063565b005b61004e61005e3660046106d7565b610164565b61006f833330846102a2565b61008e8373e592427a0aece92de3edee1f18e0157c05861564836103f2565b60408051610100810182526001600160a01b03808616825284166020820152610bb88183015233606082015242608082015260a08101839052600060c0820181905260e0820152905163414bf38960e01b815273e592427a0aece92de3edee1f18e0157c058615649063414bf3899061010b908490600401610790565b602060405180830381600087803b15801561012557600080fd5b505af1158015610139573d6000803e3d6000fd5b505050506040513d601f19601f8201168201806040525081019061015d9190610718565b5050505050565b610170843330846102a2565b61018f8473e592427a0aece92de3edee1f18e0157c05861564836103f2565b60408051610100810182526001600160a01b03808716825285166020820152610bb88183015233606082015242608082015260a0810184905260c08101839052600060e082018190529151631b67c43360e31b815290919073e592427a0aece92de3edee1f18e0157c058615649063db3e219890610211908590600401610790565b602060405180830381600087803b15801561022b57600080fd5b505af115801561023f573d6000803e3d6000fd5b505050506040513d601f19601f820116820180604052508101906102639190610718565b90508281101561029a5761028d8673e592427a0aece92de3edee1f18e0157c0586156460006103f2565b61029a8633838603610539565b505050505050565b604080516001600160a01b0385811660248301528481166044830152606480830185905283518084039091018152608490920183526020820180516001600160e01b03166323b872dd60e01b178152925182516000948594938a169392918291908083835b602083106103265780518252601f199092019160209182019101610307565b6001836020036101000a0380198251168184511680821785525050505050509050019150506000604051808303816000865af19150503d8060008114610388576040519150601f19603f3d011682016040523d82523d6000602084013e61038d565b606091505b50915091508180156103bb5750805115806103bb57508080602001905160208110156103b857600080fd5b50515b61029a576040805162461bcd60e51b815260206004820152600360248201526229aa2360e91b604482015290519081900360640190fd5b604080516001600160a01b038481166024830152604480830185905283518084039091018152606490920183526020820180516001600160e01b031663095ea7b360e01b1781529251825160009485949389169392918291908083835b6020831061046e5780518252601f19909201916020918201910161044f565b6001836020036101000a0380198251168184511680821785525050505050509050019150506000604051808303816000865af19150503d80600081146104d0576040519150601f19603f3d011682016040523d82523d6000602084013e6104d5565b606091505b5091509150818015610503575080511580610503575080806020019051602081101561050057600080fd5b50515b61015d576040805162461bcd60e51b8152602060048201526002602482015261534160f01b604482015290519081900360640190fd5b604080516001600160a01b038481166024830152604480830185905283518084039091018152606490920183526020820180516001600160e01b031663a9059cbb60e01b1781529251825160009485949389169392918291908083835b602083106105b55780518252601f199092019160209182019101610596565b6001836020036101000a0380198251168184511680821785525050505050509050019150506000604051808303816000865af19150503d8060008114610617576040519150601f19603f3d011682016040523d82523d6000602084013e61061c565b606091505b509150915081801561064a57508051158061064a575080806020019051602081101561064757600080fd5b50515b61015d576040805162461bcd60e51b815260206004820152600260248201526114d560f21b604482015290519081900360640190fd5b80356001600160a01b038116811461069757600080fd5b919050565b6000806000606084860312156106b0578283fd5b6106b984610680565b92506106c760208501610680565b9150604084013590509250925092565b600080600080608085870312156106ec578081fd5b6106f585610680565b935061070360208601610680565b93969395505050506040820135916060013590565b600060208284031215610729578081fd5b5051919050565b80516001600160a01b03908116835260208083015182169084015260408083015162ffffff16908401526060808301518216908401526080808301519084015260a0828101519084015260c0808301519084015260e09182015116910152565b610100810161079f8284610730565b9291505056fea2646970667358221220c5d904919090c09e961065d5539e8d89f2d097047035a1d0845f2a4bfa151cdd64736f6c63430007060033",
  "linkReferences": {},
  "deployedLinkReferences": {}
}