{
  "_format": "hh-sol-artifact-1",
  "contractName": "UniswapV3SingleHopSwap",
  "sourceName": "contracts/UniswapV3SingleHopSwap.sol",
  "abi": [
    {
      "inputs": [
        {
          "internalType": "uint256",
          "name": "amountIn",
          "type": "uint256"
        },
        {
          "internalType": "uint256",
          "name": "amountOutMin",
          "type": "uint256"
        }
      ],
      "name": "swapExactInputSingleHop",
      "outputs": [],
      "stateMutability": "nonpayable",
      "type": "function"
    },
    {
      "inputs": [
        {
          "internalType": "uint256",
          "name": "amountOut",
          "type": "uint256"
        },
        {
          "internalType": "uint256",
          "name": "amountInMax",
          "type": "uint256"
        }
      ],
      "name": "swapExactOutputSingleHop",
      "outputs": [],
      "stateMutability": "nonpayable",
      "type": "function"
    }
  ],
  "bytecode": "0x608060405234801561001057600080fd5b50610b96806100206000396000f3fe608060405234801561001057600080fd5b50600436106100365760003560e01c8063c9eb5e5a1461003b578063e4eaab9614610057575b600080fd5b61005560048036038101906100509190610731565b610073565b005b610071600480360381019061006c9190610731565b61045e565b005b73c02aaa39b223fe8d0a0e5c4f27ead9083c756cc273ffffffffffffffffffffffffffffffffffffffff166323b872dd3330846040518463ffffffff1660e01b81526004016100c4939291906107c1565b6020604051808303816000875af11580156100e3573d6000803e3d6000fd5b505050506040513d601f19601f820116820180604052508101906101079190610830565b5073c02aaa39b223fe8d0a0e5c4f27ead9083c756cc273ffffffffffffffffffffffffffffffffffffffff1663095ea7b373e592427a0aece92de3edee1f18e0157c05861564836040518363ffffffff1660e01b815260040161016b92919061085d565b6020604051808303816000875af115801561018a573d6000803e3d6000fd5b505050506040513d601f19601f820116820180604052508101906101ae9190610830565b50600060405180610100016040528073c02aaa39b223fe8d0a0e5c4f27ead9083c756cc273ffffffffffffffffffffffffffffffffffffffff168152602001736b175474e89094c44da98b954eedeac495271d0f73ffffffffffffffffffffffffffffffffffffffff168152602001610bb862ffffff1681526020013373ffffffffffffffffffffffffffffffffffffffff168152602001428152602001848152602001838152602001600073ffffffffffffffffffffffffffffffffffffffff168152509050600073e592427a0aece92de3edee1f18e0157c0586156473ffffffffffffffffffffffffffffffffffffffff1663db3e2198836040518263ffffffff1660e01b81526004016102c49190610973565b6020604051808303816000875af11580156102e3573d6000803e3d6000fd5b505050506040513d601f19601f8201168201806040525081019061030791906109a4565b9050828110156104585773c02aaa39b223fe8d0a0e5c4f27ead9083c756cc273ffffffffffffffffffffffffffffffffffffffff1663095ea7b373e592427a0aece92de3edee1f18e0157c0586156460006040518363ffffffff1660e01b8152600401610375929190610a16565b6020604051808303816000875af1158015610394573d6000803e3d6000fd5b505050506040513d601f19601f820116820180604052508101906103b89190610830565b5073c02aaa39b223fe8d0a0e5c4f27ead9083c756cc273ffffffffffffffffffffffffffffffffffffffff1663a9059cbb3383866103f69190610a6e565b6040518363ffffffff1660e01b815260040161041392919061085d565b6020604051808303816000875af1158015610432573d6000803e3d6000fd5b505050506040513d601f19601f820116820180604052508101906104569190610830565b505b50505050565b73c02aaa39b223fe8d0a0e5c4f27ead9083c756cc273ffffffffffffffffffffffffffffffffffffffff166323b872dd3330856040518463ffffffff1660e01b81526004016104af939291906107c1565b6020604051808303816000875af11580156104ce573d6000803e3d6000fd5b505050506040513d601f19601f820116820180604052508101906104f29190610830565b5073c02aaa39b223fe8d0a0e5c4f27ead9083c756cc273ffffffffffffffffffffffffffffffffffffffff1663095ea7b373e592427a0aece92de3edee1f18e0157c05861564846040518363ffffffff1660e01b815260040161055692919061085d565b6020604051808303816000875af1158015610575573d6000803e3d6000fd5b505050506040513d601f19601f820116820180604052508101906105999190610830565b50600060405180610100016040528073c02aaa39b223fe8d0a0e5c4f27ead9083c756cc273ffffffffffffffffffffffffffffffffffffffff168152602001736b175474e89094c44da98b954eedeac495271d0f73ffffffffffffffffffffffffffffffffffffffff168152602001610bb862ffffff1681526020013373ffffffffffffffffffffffffffffffffffffffff168152602001428152602001848152602001838152602001600073ffffffffffffffffffffffffffffffffffffffff16815250905073e592427a0aece92de3edee1f18e0157c0586156473ffffffffffffffffffffffffffffffffffffffff1663414bf389826040518263ffffffff1660e01b81526004016106ad9190610b44565b6020604051808303816000875af11580156106cc573d6000803e3d6000fd5b505050506040513d601f19601f820116820180604052508101906106f091906109a4565b50505050565b600080fd5b6000819050919050565b61070e816106fb565b811461071957600080fd5b50565b60008135905061072b81610705565b92915050565b60008060408385031215610748576107476106f6565b5b60006107568582860161071c565b92505060206107678582860161071c565b9150509250929050565b600073ffffffffffffffffffffffffffffffffffffffff82169050919050565b600061079c82610771565b9050919050565b6107ac81610791565b82525050565b6107bb816106fb565b82525050565b60006060820190506107d660008301866107a3565b6107e360208301856107a3565b6107f060408301846107b2565b949350505050565b60008115159050919050565b61080d816107f8565b811461081857600080fd5b50565b60008151905061082a81610804565b92915050565b600060208284031215610846576108456106f6565b5b60006108548482850161081b565b91505092915050565b600060408201905061087260008301856107a3565b61087f60208301846107b2565b9392505050565b61088f81610791565b82525050565b600062ffffff82169050919050565b6108ad81610895565b82525050565b6108bc816106fb565b82525050565b6108cb81610771565b82525050565b610100820160008201516108e86000850182610886565b5060208201516108fb6020850182610886565b50604082015161090e60408501826108a4565b5060608201516109216060850182610886565b50608082015161093460808501826108b3565b5060a082015161094760a08501826108b3565b5060c082015161095a60c08501826108b3565b5060e082015161096d60e08501826108c2565b50505050565b60006101008201905061098960008301846108d1565b92915050565b60008151905061099e81610705565b92915050565b6000602082840312156109ba576109b96106f6565b5b60006109c88482850161098f565b91505092915050565b6000819050919050565b6000819050919050565b6000610a006109fb6109f6846109d1565b6109db565b6106fb565b9050919050565b610a10816109e5565b82525050565b6000604082019050610a2b60008301856107a3565b610a386020830184610a07565b9392505050565b7f4e487b7100000000000000000000000000000000000000000000000000000000600052601160045260246000fd5b6000610a79826106fb565b9150610a84836106fb565b9250828203905081811115610a9c57610a9b610a3f565b5b92915050565b61010082016000820151610ab96000850182610886565b506020820151610acc6020850182610886565b506040820151610adf60408501826108a4565b506060820151610af26060850182610886565b506080820151610b0560808501826108b3565b5060a0820151610b1860a08501826108b3565b5060c0820151610b2b60c08501826108b3565b5060e0820151610b3e60e08501826108c2565b50505050565b600061010082019050610b5a6000830184610aa2565b9291505056fea2646970667358221220b43fb3ab94384e584652cacde79b0544f9ed98a30d95957e049b1b117e6048c364736f6c63430008110033",
  "linkReferences": {},
  "deployedLinkReferences": {}
}